{
  "contractName": "NFT",
  "abi": [
    {
      "inputs": [
        {
          "internalType": "address",
          "name": "marketplaceAddress",
          "type": "address"
        }
      ],
      "stateMutability": "nonpayable",
      "type": "constructor"
    },
    {
      "anonymous": false,
      "inputs": [
        {
          "indexed": true,
          "internalType": "address",
          "name": "owner",
          "type": "address"
        },
        {
          "indexed": true,
          "internalType": "address",
          "name": "approved",
          "type": "address"
        },
        {
          "indexed": true,
          "internalType": "uint256",
          "name": "tokenId",
          "type": "uint256"
        }
      ],
      "name": "Approval",
      "type": "event"
    },
    {
      "anonymous": false,
      "inputs": [
        {
          "indexed": true,
          "internalType": "address",
          "name": "owner",
          "type": "address"
        },
        {
          "indexed": true,
          "internalType": "address",
          "name": "operator",
          "type": "address"
        },
        {
          "indexed": false,
          "internalType": "bool",
          "name": "approved",
          "type": "bool"
        }
      ],
      "name": "ApprovalForAll",
      "type": "event"
    },
    {
      "anonymous": false,
      "inputs": [
        {
          "indexed": true,
          "internalType": "address",
          "name": "from",
          "type": "address"
        },
        {
          "indexed": true,
          "internalType": "address",
          "name": "to",
          "type": "address"
        },
        {
          "indexed": true,
          "internalType": "uint256",
          "name": "tokenId",
          "type": "uint256"
        }
      ],
      "name": "Transfer",
      "type": "event"
    },
    {
      "inputs": [
        {
          "internalType": "address",
          "name": "to",
          "type": "address"
        },
        {
          "internalType": "uint256",
          "name": "tokenId",
          "type": "uint256"
        }
      ],
      "name": "approve",
      "outputs": [],
      "stateMutability": "nonpayable",
      "type": "function"
    },
    {
      "inputs": [
        {
          "internalType": "address",
          "name": "owner",
          "type": "address"
        }
      ],
      "name": "balanceOf",
      "outputs": [
        {
          "internalType": "uint256",
          "name": "",
          "type": "uint256"
        }
      ],
      "stateMutability": "view",
      "type": "function",
      "constant": true
    },
    {
      "inputs": [
        {
          "internalType": "uint256",
          "name": "tokenId",
          "type": "uint256"
        }
      ],
      "name": "getApproved",
      "outputs": [
        {
          "internalType": "address",
          "name": "",
          "type": "address"
        }
      ],
      "stateMutability": "view",
      "type": "function",
      "constant": true
    },
    {
      "inputs": [
        {
          "internalType": "address",
          "name": "owner",
          "type": "address"
        },
        {
          "internalType": "address",
          "name": "operator",
          "type": "address"
        }
      ],
      "name": "isApprovedForAll",
      "outputs": [
        {
          "internalType": "bool",
          "name": "",
          "type": "bool"
        }
      ],
      "stateMutability": "view",
      "type": "function",
      "constant": true
    },
    {
      "inputs": [],
      "name": "name",
      "outputs": [
        {
          "internalType": "string",
          "name": "",
          "type": "string"
        }
      ],
      "stateMutability": "view",
      "type": "function",
      "constant": true
    },
    {
      "inputs": [
        {
          "internalType": "uint256",
          "name": "tokenId",
          "type": "uint256"
        }
      ],
      "name": "ownerOf",
      "outputs": [
        {
          "internalType": "address",
          "name": "",
          "type": "address"
        }
      ],
      "stateMutability": "view",
      "type": "function",
      "constant": true
    },
    {
      "inputs": [
        {
          "internalType": "address",
          "name": "from",
          "type": "address"
        },
        {
          "internalType": "address",
          "name": "to",
          "type": "address"
        },
        {
          "internalType": "uint256",
          "name": "tokenId",
          "type": "uint256"
        }
      ],
      "name": "safeTransferFrom",
      "outputs": [],
      "stateMutability": "nonpayable",
      "type": "function"
    },
    {
      "inputs": [
        {
          "internalType": "address",
          "name": "from",
          "type": "address"
        },
        {
          "internalType": "address",
          "name": "to",
          "type": "address"
        },
        {
          "internalType": "uint256",
          "name": "tokenId",
          "type": "uint256"
        },
        {
          "internalType": "bytes",
          "name": "_data",
          "type": "bytes"
        }
      ],
      "name": "safeTransferFrom",
      "outputs": [],
      "stateMutability": "nonpayable",
      "type": "function"
    },
    {
      "inputs": [
        {
          "internalType": "address",
          "name": "operator",
          "type": "address"
        },
        {
          "internalType": "bool",
          "name": "approved",
          "type": "bool"
        }
      ],
      "name": "setApprovalForAll",
      "outputs": [],
      "stateMutability": "nonpayable",
      "type": "function"
    },
    {
      "inputs": [
        {
          "internalType": "bytes4",
          "name": "interfaceId",
          "type": "bytes4"
        }
      ],
      "name": "supportsInterface",
      "outputs": [
        {
          "internalType": "bool",
          "name": "",
          "type": "bool"
        }
      ],
      "stateMutability": "view",
      "type": "function",
      "constant": true
    },
    {
      "inputs": [],
      "name": "symbol",
      "outputs": [
        {
          "internalType": "string",
          "name": "",
          "type": "string"
        }
      ],
      "stateMutability": "view",
      "type": "function",
      "constant": true
    },
    {
      "inputs": [
        {
          "internalType": "uint256",
          "name": "tokenId",
          "type": "uint256"
        }
      ],
      "name": "tokenURI",
      "outputs": [
        {
          "internalType": "string",
          "name": "",
          "type": "string"
        }
      ],
      "stateMutability": "view",
      "type": "function",
      "constant": true
    },
    {
      "inputs": [
        {
          "internalType": "address",
          "name": "from",
          "type": "address"
        },
        {
          "internalType": "address",
          "name": "to",
          "type": "address"
        },
        {
          "internalType": "uint256",
          "name": "tokenId",
          "type": "uint256"
        }
      ],
      "name": "transferFrom",
      "outputs": [],
      "stateMutability": "nonpayable",
      "type": "function"
    },
    {
      "inputs": [
        {
          "internalType": "string",
          "name": "tokenURI",
          "type": "string"
        }
      ],
      "name": "createToken",
      "outputs": [
        {
          "internalType": "uint256",
          "name": "",
          "type": "uint256"
        }
      ],
      "stateMutability": "nonpayable",
      "type": "function"
    }
  ],
  "bytecode": "0x60806040523480156200001157600080fd5b5060405162002e9c38038062002e9c8339818101604052810190620000379190620001e6565b6040518060400160405280600981526020017f4d657461766572736500000000000000000000000000000000000000000000008152506040518060400160405280600481526020017f4d455454000000000000000000000000000000000000000000000000000000008152508160009080519060200190620000bb9291906200011f565b508060019080519060200190620000d49291906200011f565b50505080600860006101000a81548173ffffffffffffffffffffffffffffffffffffffff021916908373ffffffffffffffffffffffffffffffffffffffff16021790555050620002d0565b8280546200012d906200024c565b90600052602060002090601f0160209004810192826200015157600085556200019d565b82601f106200016c57805160ff19168380011785556200019d565b828001600101855582156200019d579182015b828111156200019c5782518255916020019190600101906200017f565b5b509050620001ac9190620001b0565b5090565b5b80821115620001cb576000816000905550600101620001b1565b5090565b600081519050620001e081620002b6565b92915050565b600060208284031215620001ff57620001fe620002b1565b5b60006200020f84828501620001cf565b91505092915050565b600062000225826200022c565b9050919050565b600073ffffffffffffffffffffffffffffffffffffffff82169050919050565b600060028204905060018216806200026557607f821691505b602082108114156200027c576200027b62000282565b5b50919050565b7f4e487b7100000000000000000000000000000000000000000000000000000000600052602260045260246000fd5b600080fd5b620002c18162000218565b8114620002cd57600080fd5b50565b612bbc80620002e06000396000f3fe608060405234801561001057600080fd5b50600436106100ea5760003560e01c80636352211e1161008c578063a22cb46511610066578063a22cb4651461026f578063b88d4fde1461028b578063c87b56dd146102a7578063e985e9c5146102d7576100ea565b80636352211e146101f157806370a082311461022157806395d89b4114610251576100ea565b8063095ea7b3116100c8578063095ea7b31461016d57806323b872dd1461018957806342842e0e146101a557806345576f94146101c1576100ea565b806301ffc9a7146100ef57806306fdde031461011f578063081812fc1461013d575b600080fd5b61010960048036038101906101049190611bd1565b610307565b604051610116919061202c565b60405180910390f35b6101276103e9565b6040516101349190612047565b60405180910390f35b61015760048036038101906101529190611c74565b61047b565b6040516101649190611fc5565b60405180910390f35b61018760048036038101906101829190611b91565b610500565b005b6101a3600480360381019061019e9190611a7b565b610618565b005b6101bf60048036038101906101ba9190611a7b565b610678565b005b6101db60048036038101906101d69190611c2b565b610698565b6040516101e89190612269565b60405180910390f35b61020b60048036038101906102069190611c74565b6106fc565b6040516102189190611fc5565b60405180910390f35b61023b60048036038101906102369190611a0e565b6107ae565b6040516102489190612269565b60405180910390f35b610259610866565b6040516102669190612047565b60405180910390f35b61028960048036038101906102849190611b51565b6108f8565b005b6102a560048036038101906102a09190611ace565b610a79565b005b6102c160048036038101906102bc9190611c74565b610adb565b6040516102ce9190612047565b60405180910390f35b6102f160048036038101906102ec9190611a3b565b610c2d565b6040516102fe919061202c565b60405180910390f35b60007f80ac58cd000000000000000000000000000000000000000000000000000000007bffffffffffffffffffffffffffffffffffffffffffffffffffffffff1916827bffffffffffffffffffffffffffffffffffffffffffffffffffffffff191614806103d257507f5b5e139f000000000000000000000000000000000000000000000000000000007bffffffffffffffffffffffffffffffffffffffffffffffffffffffff1916827bffffffffffffffffffffffffffffffffffffffffffffffffffffffff1916145b806103e257506103e182610cc1565b5b9050919050565b6060600080546103f8906124bf565b80601f0160208091040260200160405190810160405280929190818152602001828054610424906124bf565b80156104715780601f1061044657610100808354040283529160200191610471565b820191906000526020600020905b81548152906001019060200180831161045457829003601f168201915b5050505050905090565b600061048682610d2b565b6104c5576040517f08c379a00000000000000000000000000000000000000000000000000000000081526004016104bc906121c9565b60405180910390fd5b6004600083815260200190815260200160002060009054906101000a900473ffffffffffffffffffffffffffffffffffffffff169050919050565b600061050b826106fc565b90508073ffffffffffffffffffffffffffffffffffffffff168373ffffffffffffffffffffffffffffffffffffffff16141561057c576040517f08c379a000000000000000000000000000000000000000000000000000000000815260040161057390612229565b60405180910390fd5b8073ffffffffffffffffffffffffffffffffffffffff1661059b610d97565b73ffffffffffffffffffffffffffffffffffffffff1614806105ca57506105c9816105c4610d97565b610c2d565b5b610609576040517f08c379a000000000000000000000000000000000000000000000000000000000815260040161060090612109565b60405180910390fd5b6106138383610d9f565b505050565b610629610623610d97565b82610e58565b610668576040517f08c379a000000000000000000000000000000000000000000000000000000000815260040161065f90612249565b60405180910390fd5b610673838383610f36565b505050565b61069383838360405180602001604052806000815250610a79565b505050565b60006106a46007611192565b60006106b060076111a8565b90506106bc33826111b6565b6106c68184611384565b6106f3600860009054906101000a900473ffffffffffffffffffffffffffffffffffffffff1660016108f8565b80915050919050565b6000806002600084815260200190815260200160002060009054906101000a900473ffffffffffffffffffffffffffffffffffffffff169050600073ffffffffffffffffffffffffffffffffffffffff168173ffffffffffffffffffffffffffffffffffffffff1614156107a5576040517f08c379a000000000000000000000000000000000000000000000000000000000815260040161079c90612149565b60405180910390fd5b80915050919050565b60008073ffffffffffffffffffffffffffffffffffffffff168273ffffffffffffffffffffffffffffffffffffffff16141561081f576040517f08c379a000000000000000000000000000000000000000000000000000000000815260040161081690612129565b60405180910390fd5b600360008373ffffffffffffffffffffffffffffffffffffffff1673ffffffffffffffffffffffffffffffffffffffff168152602001908152602001600020549050919050565b606060018054610875906124bf565b80601f01602080910402602001604051908101604052809291908181526020018280546108a1906124bf565b80156108ee5780601f106108c3576101008083540402835291602001916108ee565b820191906000526020600020905b8154815290600101906020018083116108d157829003601f168201915b5050505050905090565b610900610d97565b73ffffffffffffffffffffffffffffffffffffffff168273ffffffffffffffffffffffffffffffffffffffff16141561096e576040517f08c379a0000000000000000000000000000000000000000000000000000000008152600401610965906120c9565b60405180910390fd5b806005600061097b610d97565b73ffffffffffffffffffffffffffffffffffffffff1673ffffffffffffffffffffffffffffffffffffffff16815260200190815260200160002060008473ffffffffffffffffffffffffffffffffffffffff1673ffffffffffffffffffffffffffffffffffffffff16815260200190815260200160002060006101000a81548160ff0219169083151502179055508173ffffffffffffffffffffffffffffffffffffffff16610a28610d97565b73ffffffffffffffffffffffffffffffffffffffff167f17307eab39ab6107e8899845ad3d59bd9653f200f220920489ca2b5937696c3183604051610a6d919061202c565b60405180910390a35050565b610a8a610a84610d97565b83610e58565b610ac9576040517f08c379a0000000000000000000000000000000000000000000000000000000008152600401610ac090612249565b60405180910390fd5b610ad5848484846113f8565b50505050565b6060610ae682610d2b565b610b25576040517f08c379a0000000000000000000000000000000000000000000000000000000008152600401610b1c906121a9565b60405180910390fd5b6000600660008481526020019081526020016000208054610b45906124bf565b80601f0160208091040260200160405190810160405280929190818152602001828054610b71906124bf565b8015610bbe5780601f10610b9357610100808354040283529160200191610bbe565b820191906000526020600020905b815481529060010190602001808311610ba157829003601f168201915b505050505090506000610bcf611454565b9050600081511415610be5578192505050610c28565b600082511115610c1a578082604051602001610c02929190611fa1565b60405160208183030381529060405292505050610c28565b610c238461146b565b925050505b919050565b6000600560008473ffffffffffffffffffffffffffffffffffffffff1673ffffffffffffffffffffffffffffffffffffffff16815260200190815260200160002060008373ffffffffffffffffffffffffffffffffffffffff1673ffffffffffffffffffffffffffffffffffffffff16815260200190815260200160002060009054906101000a900460ff16905092915050565b60007f01ffc9a7000000000000000000000000000000000000000000000000000000007bffffffffffffffffffffffffffffffffffffffffffffffffffffffff1916827bffffffffffffffffffffffffffffffffffffffffffffffffffffffff1916149050919050565b60008073ffffffffffffffffffffffffffffffffffffffff166002600084815260200190815260200160002060009054906101000a900473ffffffffffffffffffffffffffffffffffffffff1673ffffffffffffffffffffffffffffffffffffffff1614159050919050565b600033905090565b816004600083815260200190815260200160002060006101000a81548173ffffffffffffffffffffffffffffffffffffffff021916908373ffffffffffffffffffffffffffffffffffffffff160217905550808273ffffffffffffffffffffffffffffffffffffffff16610e12836106fc565b73ffffffffffffffffffffffffffffffffffffffff167f8c5be1e5ebec7d5bd14f71427d1e84f3dd0314c0f7b2291e5b200ac8c7c3b92560405160405180910390a45050565b6000610e6382610d2b565b610ea2576040517f08c379a0000000000000000000000000000000000000000000000000000000008152600401610e99906120e9565b60405180910390fd5b6000610ead836106fc565b90508073ffffffffffffffffffffffffffffffffffffffff168473ffffffffffffffffffffffffffffffffffffffff161480610f1c57508373ffffffffffffffffffffffffffffffffffffffff16610f048461047b565b73ffffffffffffffffffffffffffffffffffffffff16145b80610f2d5750610f2c8185610c2d565b5b91505092915050565b8273ffffffffffffffffffffffffffffffffffffffff16610f56826106fc565b73ffffffffffffffffffffffffffffffffffffffff1614610fac576040517f08c379a0000000000000000000000000000000000000000000000000000000008152600401610fa3906121e9565b60405180910390fd5b600073ffffffffffffffffffffffffffffffffffffffff168273ffffffffffffffffffffffffffffffffffffffff16141561101c576040517f08c379a0000000000000000000000000000000000000000000000000000000008152600401611013906120a9565b60405180910390fd5b611027838383611512565b611032600082610d9f565b6001600360008573ffffffffffffffffffffffffffffffffffffffff1673ffffffffffffffffffffffffffffffffffffffff168152602001908152602001600020600082825461108291906123d5565b925050819055506001600360008473ffffffffffffffffffffffffffffffffffffffff1673ffffffffffffffffffffffffffffffffffffffff16815260200190815260200160002060008282546110d9919061234e565b92505081905550816002600083815260200190815260200160002060006101000a81548173ffffffffffffffffffffffffffffffffffffffff021916908373ffffffffffffffffffffffffffffffffffffffff160217905550808273ffffffffffffffffffffffffffffffffffffffff168473ffffffffffffffffffffffffffffffffffffffff167fddf252ad1be2c89b69c2b068fc378daa952ba7f163c4a11628f55a4df523b3ef60405160405180910390a4505050565b6001816000016000828254019250508190555050565b600081600001549050919050565b600073ffffffffffffffffffffffffffffffffffffffff168273ffffffffffffffffffffffffffffffffffffffff161415611226576040517f08c379a000000000000000000000000000000000000000000000000000000000815260040161121d90612189565b60405180910390fd5b61122f81610d2b565b1561126f576040517f08c379a000000000000000000000000000000000000000000000000000000000815260040161126690612089565b60405180910390fd5b61127b60008383611512565b6001600360008473ffffffffffffffffffffffffffffffffffffffff1673ffffffffffffffffffffffffffffffffffffffff16815260200190815260200160002060008282546112cb919061234e565b92505081905550816002600083815260200190815260200160002060006101000a81548173ffffffffffffffffffffffffffffffffffffffff021916908373ffffffffffffffffffffffffffffffffffffffff160217905550808273ffffffffffffffffffffffffffffffffffffffff16600073ffffffffffffffffffffffffffffffffffffffff167fddf252ad1be2c89b69c2b068fc378daa952ba7f163c4a11628f55a4df523b3ef60405160405180910390a45050565b61138d82610d2b565b6113cc576040517f08c379a00000000000000000000000000000000000000000000000000000000081526004016113c390612169565b60405180910390fd5b806006600084815260200190815260200160002090805190602001906113f3929190611822565b505050565b611403848484610f36565b61140f84848484611517565b61144e576040517f08c379a000000000000000000000000000000000000000000000000000000000815260040161144590612069565b60405180910390fd5b50505050565b606060405180602001604052806000815250905090565b606061147682610d2b565b6114b5576040517f08c379a00000000000000000000000000000000000000000000000000000000081526004016114ac90612209565b60405180910390fd5b60006114bf611454565b905060008151116114df576040518060200160405280600081525061150a565b806114e9846116ae565b6040516020016114fa929190611fa1565b6040516020818303038152906040525b915050919050565b505050565b60006115388473ffffffffffffffffffffffffffffffffffffffff1661180f565b156116a1578373ffffffffffffffffffffffffffffffffffffffff1663150b7a02611561610d97565b8786866040518563ffffffff1660e01b81526004016115839493929190611fe0565b602060405180830381600087803b15801561159d57600080fd5b505af19250505080156115ce57506040513d601f19601f820116820180604052508101906115cb9190611bfe565b60015b611651573d80600081146115fe576040519150601f19603f3d011682016040523d82523d6000602084013e611603565b606091505b50600081511415611649576040517f08c379a000000000000000000000000000000000000000000000000000000000815260040161164090612069565b60405180910390fd5b805181602001fd5b63150b7a0260e01b7bffffffffffffffffffffffffffffffffffffffffffffffffffffffff1916817bffffffffffffffffffffffffffffffffffffffffffffffffffffffff1916149150506116a6565b600190505b949350505050565b606060008214156116f6576040518060400160405280600181526020017f3000000000000000000000000000000000000000000000000000000000000000815250905061180a565b600082905060005b6000821461172857808061171190612522565b915050600a8261172191906123a4565b91506116fe565b60008167ffffffffffffffff81111561174457611743612658565b5b6040519080825280601f01601f1916602001820160405280156117765781602001600182028036833780820191505090505b5090505b600085146118035760018261178f91906123d5565b9150600a8561179e919061256b565b60306117aa919061234e565b60f81b8183815181106117c0576117bf612629565b5b60200101907effffffffffffffffffffffffffffffffffffffffffffffffffffffffffffff1916908160001a905350600a856117fc91906123a4565b945061177a565b8093505050505b919050565b600080823b905060008111915050919050565b82805461182e906124bf565b90600052602060002090601f0160209004810192826118505760008555611897565b82601f1061186957805160ff1916838001178555611897565b82800160010185558215611897579182015b8281111561189657825182559160200191906001019061187b565b5b5090506118a491906118a8565b5090565b5b808211156118c15760008160009055506001016118a9565b5090565b60006118d86118d3846122a9565b612284565b9050828152602081018484840111156118f4576118f361268c565b5b6118ff84828561247d565b509392505050565b600061191a611915846122da565b612284565b9050828152602081018484840111156119365761193561268c565b5b61194184828561247d565b509392505050565b60008135905061195881612b2a565b92915050565b60008135905061196d81612b41565b92915050565b60008135905061198281612b58565b92915050565b60008151905061199781612b58565b92915050565b600082601f8301126119b2576119b1612687565b5b81356119c28482602086016118c5565b91505092915050565b600082601f8301126119e0576119df612687565b5b81356119f0848260208601611907565b91505092915050565b600081359050611a0881612b6f565b92915050565b600060208284031215611a2457611a23612696565b5b6000611a3284828501611949565b91505092915050565b60008060408385031215611a5257611a51612696565b5b6000611a6085828601611949565b9250506020611a7185828601611949565b9150509250929050565b600080600060608486031215611a9457611a93612696565b5b6000611aa286828701611949565b9350506020611ab386828701611949565b9250506040611ac4868287016119f9565b9150509250925092565b60008060008060808587031215611ae857611ae7612696565b5b6000611af687828801611949565b9450506020611b0787828801611949565b9350506040611b18878288016119f9565b925050606085013567ffffffffffffffff811115611b3957611b38612691565b5b611b458782880161199d565b91505092959194509250565b60008060408385031215611b6857611b67612696565b5b6000611b7685828601611949565b9250506020611b878582860161195e565b9150509250929050565b60008060408385031215611ba857611ba7612696565b5b6000611bb685828601611949565b9250506020611bc7858286016119f9565b9150509250929050565b600060208284031215611be757611be6612696565b5b6000611bf584828501611973565b91505092915050565b600060208284031215611c1457611c13612696565b5b6000611c2284828501611988565b91505092915050565b600060208284031215611c4157611c40612696565b5b600082013567ffffffffffffffff811115611c5f57611c5e612691565b5b611c6b848285016119cb565b91505092915050565b600060208284031215611c8a57611c89612696565b5b6000611c98848285016119f9565b91505092915050565b611caa81612409565b82525050565b611cb98161241b565b82525050565b6000611cca8261230b565b611cd48185612321565b9350611ce481856020860161248c565b611ced8161269b565b840191505092915050565b6000611d0382612316565b611d0d8185612332565b9350611d1d81856020860161248c565b611d268161269b565b840191505092915050565b6000611d3c82612316565b611d468185612343565b9350611d5681856020860161248c565b80840191505092915050565b6000611d6f603283612332565b9150611d7a826126ac565b604082019050919050565b6000611d92601c83612332565b9150611d9d826126fb565b602082019050919050565b6000611db5602483612332565b9150611dc082612724565b604082019050919050565b6000611dd8601983612332565b9150611de382612773565b602082019050919050565b6000611dfb602c83612332565b9150611e068261279c565b604082019050919050565b6000611e1e603883612332565b9150611e29826127eb565b604082019050919050565b6000611e41602a83612332565b9150611e4c8261283a565b604082019050919050565b6000611e64602983612332565b9150611e6f82612889565b604082019050919050565b6000611e87602e83612332565b9150611e92826128d8565b604082019050919050565b6000611eaa602083612332565b9150611eb582612927565b602082019050919050565b6000611ecd603183612332565b9150611ed882612950565b604082019050919050565b6000611ef0602c83612332565b9150611efb8261299f565b604082019050919050565b6000611f13602983612332565b9150611f1e826129ee565b604082019050919050565b6000611f36602f83612332565b9150611f4182612a3d565b604082019050919050565b6000611f59602183612332565b9150611f6482612a8c565b604082019050919050565b6000611f7c603183612332565b9150611f8782612adb565b604082019050919050565b611f9b81612473565b82525050565b6000611fad8285611d31565b9150611fb98284611d31565b91508190509392505050565b6000602082019050611fda6000830184611ca1565b92915050565b6000608082019050611ff56000830187611ca1565b6120026020830186611ca1565b61200f6040830185611f92565b81810360608301526120218184611cbf565b905095945050505050565b60006020820190506120416000830184611cb0565b92915050565b600060208201905081810360008301526120618184611cf8565b905092915050565b6000602082019050818103600083015261208281611d62565b9050919050565b600060208201905081810360008301526120a281611d85565b9050919050565b600060208201905081810360008301526120c281611da8565b9050919050565b600060208201905081810360008301526120e281611dcb565b9050919050565b6000602082019050818103600083015261210281611dee565b9050919050565b6000602082019050818103600083015261212281611e11565b9050919050565b6000602082019050818103600083015261214281611e34565b9050919050565b6000602082019050818103600083015261216281611e57565b9050919050565b6000602082019050818103600083015261218281611e7a565b9050919050565b600060208201905081810360008301526121a281611e9d565b9050919050565b600060208201905081810360008301526121c281611ec0565b9050919050565b600060208201905081810360008301526121e281611ee3565b9050919050565b6000602082019050818103600083015261220281611f06565b9050919050565b6000602082019050818103600083015261222281611f29565b9050919050565b6000602082019050818103600083015261224281611f4c565b9050919050565b6000602082019050818103600083015261226281611f6f565b9050919050565b600060208201905061227e6000830184611f92565b92915050565b600061228e61229f565b905061229a82826124f1565b919050565b6000604051905090565b600067ffffffffffffffff8211156122c4576122c3612658565b5b6122cd8261269b565b9050602081019050919050565b600067ffffffffffffffff8211156122f5576122f4612658565b5b6122fe8261269b565b9050602081019050919050565b600081519050919050565b600081519050919050565b600082825260208201905092915050565b600082825260208201905092915050565b600081905092915050565b600061235982612473565b915061236483612473565b9250827fffffffffffffffffffffffffffffffffffffffffffffffffffffffffffffffff038211156123995761239861259c565b5b828201905092915050565b60006123af82612473565b91506123ba83612473565b9250826123ca576123c96125cb565b5b828204905092915050565b60006123e082612473565b91506123eb83612473565b9250828210156123fe576123fd61259c565b5b828203905092915050565b600061241482612453565b9050919050565b60008115159050919050565b60007fffffffff0000000000000000000000000000000000000000000000000000000082169050919050565b600073ffffffffffffffffffffffffffffffffffffffff82169050919050565b6000819050919050565b82818337600083830152505050565b60005b838110156124aa57808201518184015260208101905061248f565b838111156124b9576000848401525b50505050565b600060028204905060018216806124d757607f821691505b602082108114156124eb576124ea6125fa565b5b50919050565b6124fa8261269b565b810181811067ffffffffffffffff8211171561251957612518612658565b5b80604052505050565b600061252d82612473565b91507fffffffffffffffffffffffffffffffffffffffffffffffffffffffffffffffff8214156125605761255f61259c565b5b600182019050919050565b600061257682612473565b915061258183612473565b925082612591576125906125cb565b5b828206905092915050565b7f4e487b7100000000000000000000000000000000000000000000000000000000600052601160045260246000fd5b7f4e487b7100000000000000000000000000000000000000000000000000000000600052601260045260246000fd5b7f4e487b7100000000000000000000000000000000000000000000000000000000600052602260045260246000fd5b7f4e487b7100000000000000000000000000000000000000000000000000000000600052603260045260246000fd5b7f4e487b7100000000000000000000000000000000000000000000000000000000600052604160045260246000fd5b600080fd5b600080fd5b600080fd5b600080fd5b6000601f19601f8301169050919050565b7f4552433732313a207472616e7366657220746f206e6f6e20455243373231526560008201527f63656976657220696d706c656d656e7465720000000000000000000000000000602082015250565b7f4552433732313a20746f6b656e20616c7265616479206d696e74656400000000600082015250565b7f4552433732313a207472616e7366657220746f20746865207a65726f2061646460008201527f7265737300000000000000000000000000000000000000000000000000000000602082015250565b7f4552433732313a20617070726f766520746f2063616c6c657200000000000000600082015250565b7f4552433732313a206f70657261746f7220717565727920666f72206e6f6e657860008201527f697374656e7420746f6b656e0000000000000000000000000000000000000000602082015250565b7f4552433732313a20617070726f76652063616c6c6572206973206e6f74206f7760008201527f6e6572206e6f7220617070726f76656420666f7220616c6c0000000000000000602082015250565b7f4552433732313a2062616c616e636520717565727920666f7220746865207a6560008201527f726f206164647265737300000000000000000000000000000000000000000000602082015250565b7f4552433732313a206f776e657220717565727920666f72206e6f6e657869737460008201527f656e7420746f6b656e0000000000000000000000000000000000000000000000602082015250565b7f45524337323155524953746f726167653a2055524920736574206f66206e6f6e60008201527f6578697374656e7420746f6b656e000000000000000000000000000000000000602082015250565b7f4552433732313a206d696e7420746f20746865207a65726f2061646472657373600082015250565b7f45524337323155524953746f726167653a2055524920717565727920666f722060008201527f6e6f6e6578697374656e7420746f6b656e000000000000000000000000000000602082015250565b7f4552433732313a20617070726f76656420717565727920666f72206e6f6e657860008201527f697374656e7420746f6b656e0000000000000000000000000000000000000000602082015250565b7f4552433732313a207472616e73666572206f6620746f6b656e2074686174206960008201527f73206e6f74206f776e0000000000000000000000000000000000000000000000602082015250565b7f4552433732314d657461646174613a2055524920717565727920666f72206e6f60008201527f6e6578697374656e7420746f6b656e0000000000000000000000000000000000602082015250565b7f4552433732313a20617070726f76616c20746f2063757272656e74206f776e6560008201527f7200000000000000000000000000000000000000000000000000000000000000602082015250565b7f4552433732313a207472616e736665722063616c6c6572206973206e6f74206f60008201527f776e6572206e6f7220617070726f766564000000000000000000000000000000602082015250565b612b3381612409565b8114612b3e57600080fd5b50565b612b4a8161241b565b8114612b5557600080fd5b50565b612b6181612427565b8114612b6c57600080fd5b50565b612b7881612473565b8114612b8357600080fd5b5056fea2646970667358221220428b11a91fead2c49bb2f0845c4443255149c2964d6ae4037b56805d8b105e6664736f6c63430008070033",
  "immutableReferences": {},
  "source": "// SPDX-License-Identifier: MIT OR Apache-2.0\npragma solidity ^0.8.3;\n\nimport \"@openzeppelin/contracts/utils/Counters.sol\";\nimport \"@openzeppelin/contracts/token/ERC721/extensions/ERC721URIStorage.sol\";\nimport \"@openzeppelin/contracts/token/ERC721/ERC721.sol\";\n\ncontract NFT is ERC721URIStorage {\n    using Counters for Counters.Counter;\n    Counters.Counter private _tokenIds;\n    address contractAddress;\n\n    constructor(address marketplaceAddress) ERC721(\"Metaverse\", \"METT\") {\n        contractAddress = marketplaceAddress;\n    }\n\n    function createToken(string memory tokenURI) public returns (uint) {\n        _tokenIds.increment();\n        uint256 newItemId = _tokenIds.current();\n\n        _mint(msg.sender, newItemId);\n        _setTokenURI(newItemId, tokenURI);\n        setApprovalForAll(contractAddress, true);\n        return newItemId;\n    }\n}\n",
  "sourcePath": "/Users/lavender/Desktop/ethereumProj/polygon_nft_tutorial/src/contracts/NFT.sol",
  "compiler": {
    "name": "solc",
    "version": "0.8.7+commit.e28d00a7.Emscripten.clang"
  },
  "schemaVersion": "3.4.3",
  "updatedAt": "2021-08-22T07:58:54.091Z",
  "networkType": "ethereum",
  "devdoc": {
    "kind": "dev",
    "methods": {
      "approve(address,uint256)": {
        "details": "See {IERC721-approve}."
      },
      "balanceOf(address)": {
        "details": "See {IERC721-balanceOf}."
      },
      "getApproved(uint256)": {
        "details": "See {IERC721-getApproved}."
      },
      "isApprovedForAll(address,address)": {
        "details": "See {IERC721-isApprovedForAll}."
      },
      "name()": {
        "details": "See {IERC721Metadata-name}."
      },
      "ownerOf(uint256)": {
        "details": "See {IERC721-ownerOf}."
      },
      "safeTransferFrom(address,address,uint256)": {
        "details": "See {IERC721-safeTransferFrom}."
      },
      "safeTransferFrom(address,address,uint256,bytes)": {
        "details": "See {IERC721-safeTransferFrom}."
      },
      "setApprovalForAll(address,bool)": {
        "details": "See {IERC721-setApprovalForAll}."
      },
      "supportsInterface(bytes4)": {
        "details": "See {IERC165-supportsInterface}."
      },
      "symbol()": {
        "details": "See {IERC721Metadata-symbol}."
      },
      "tokenURI(uint256)": {
        "details": "See {IERC721Metadata-tokenURI}."
      },
      "transferFrom(address,address,uint256)": {
        "details": "See {IERC721-transferFrom}."
      }
    },
    "version": 1
  },
  "userdoc": {
    "kind": "user",
    "methods": {},
    "version": 1
  }
}